:100000000C945D000C9485000C9485000C94850084
:100010000C9485000C9485000C9485000C9485004C
:100020000C9485000C9485000C9485000C94B30707
:100030000C9485000C9485000C9485000C9485002C
:100040000C9469070C9485000C9437070C941107E5
:100050000C9485000C9485000C9485000C9485000C
:100060000C946F080C948500000000002400270009
:100070002A0000000000250028002B0004040404CE
:100080000404040402020202020203030303030342
:10009000010204081020408001020408102001021F
:1000A00004081020000000080002010000030407FB
:1000B00000000000000000008E0911241FBECFEFD9
:1000C000D8E0DEBFCDBF11E0A0E0B1E0ECE5FDE19E
:1000D00002C005900D92AA36B107D9F723E0AAE62F
:1000E000B1E001C01D92A131B207E1F710E0CDE50A
:1000F000D0E004C02197FE010E94A60ECC35D107A6
:10010000C9F70E94120A0C94AC0E0C940000CF9216
:10011000DF92EF92FF92DC01A03282E0B807D4F5C3
:10012000A53BB10514F0A4EBB0E040910F0328E823
:1001300030E0241B310947FD3395220F331F220F76
:10014000331F6901330FEE08FF084091100328E5C3
:1001500032E0241B310947FD3395220F331F220F54
:10016000331F032E000C440B550B2C193D094E096F
:100170005F09B7FF02C0B0E0A0E00E94250C24EBAD
:1001800030E040E050E00E94FB0BC20ED31EE41EA4
:10019000F51ED601E0910E03EC3080F520910F039F
:1001A00088E890E0821B910927FD9395880F991F9D
:1001B000880F991FA817B90784F02091100388E5CC
:1001C00092E0821B910927FD9395880F991F880F54
:1001D000991FA817B9070CF4CD010297880F991F32
:1001E0004FB7F8942E2F30E0F901EE0FFF1FE20F0A
:1001F000F31FE352FD4F928381834FBFFF90EF9037
:10020000DF90CF90089508950895AF92BF92CF9256
:10021000DF92EF92FF920F931F93CF93DF936C01C6
:100220007B018B01040F151FEB015E01AE18BF08A7
:10023000C017D10759F06991D601ED91FC91019059
:10024000F081E02DC6010995892B79F7C501DF9171
:10025000CF911F910F91FF90EF90DF90CF90BF90C3
:10026000AF900895FC01538D448D252F30E0842FED
:1002700090E0821B930B541710F0CF9608950197CE
:100280000895FC01918D828D981761F0A28DAE0FBB
:10029000BF2FB11D5D968C91928D9F5F9F73928F42
:1002A00090E008958FEF9FEF0895FC01918D828D6E
:1002B000981731F0828DE80FF11D858D90E008953B
:1002C0008FEF9FEF0895FC01918D228D892F90E093
:1002D000805C9F4F821B91098F739927089584E357
:1002E00092E00E94630121E0892B09F420E0822F33
:1002F000089580E090E0892B29F00E946F01811120
:100300000C9400000895FC01A48DA80FB92FB11D15
:10031000A35ABF4F2C91848D90E001968F7399273B
:10032000848FA689B7892C93A089B1898C91837019
:1003300080648C93938D848D981306C00288F38912
:10034000E02D80818F7D80830895EF92FF920F933F
:100350001F93CF93DF93EC0181E0888F9B8D8C8D71
:1003600098131AC0E889F989808185FF15C09FB765
:10037000F894EE89FF896083E889F9898081837028
:10038000806480839FBF81E090E0DF91CF911F91D7
:100390000F91FF90EF900895F62E0B8D10E00F5FF8
:1003A0001F4F0F731127E02E8C8D8E110CC00FB6CE
:1003B00007FCFACFE889F989808185FFF5CFCE0166
:1003C0000E948301F1CFEB8DEC0FFD2FF11DE35A5D
:1003D000FF4FF0829FB7F8940B8FEA89FB898081E9
:1003E0008062CFCFCF93DF93EC01888D8823B9F063
:1003F000AA89BB89E889F9898C9185FD03C0808130
:1004000086FD0DC00FB607FCF7CF8C9185FFF2CFAC
:10041000808185FFEDCFCE010E948301E9CFDF917E
:10042000CF91089590E0FC01EC55FF4F2491FC0121
:10043000E057FF4F3491FC01E458FF4FE491EE2365
:10044000C9F0222339F0233001F1A8F4213019F149
:10045000223029F1F0E0EE0FFF1FEE58FF4FA5917B
:10046000B4918FB7F894EC91611126C030953E237A
:100470003C938FBF08952730A9F02830C9F024306D
:1004800049F7809180008F7D03C0809180008F7735
:1004900080938000DFCF84B58F7784BDDBCF84B5B8
:1004A0008F7DFBCF8091B0008F778093B000D2CF4B
:1004B0008091B0008F7DF9CF3E2BDACFCF93DF93C1
:1004C00090E0FC01E057FF4F249184589F4FFC01BE
:1004D00084918823D1F090E0880F991FFC01E8599E
:1004E000FF4FA591B491FC01EE58FF4FC591D491F7
:1004F00061110EC09FB7F8948C91E22FE0958E2386
:100500008C932881E223E8839FBFDF91CF910895E8
:100510008FB7F894EC91E22BEC938FBFF6CF3FB7F7
:10052000F8948091220290912302A0912402B0912C
:10053000250226B5A89B05C02F3F19F00196A11DE5
:10054000B11D3FBFBA2FA92F982F8827BC01CD011D
:10055000620F711D811D911D42E0660F771F881F7C
:10056000991F4A95D1F708958F929F92AF92BF92AB
:10057000CF92DF92EF92FF924B015C010E948F02BB
:100580006B017C010E948F026C197D098E099F0905
:10059000683E734081059105A8F321E0821A910815
:1005A000A108B10888EEC80E83E0D81EE11CF11C3A
:1005B00081149104A104B10429F7FF90EF90DF901A
:1005C000CF90BF90AF909F908F9008952091D201CF
:1005D000260F3327331F21323105ECF42091F60129
:1005E000FC0190E080E0243069F082E00895A09161
:1005F000D2012191AC014E545E4FA40FB52FB11D15
:100600002C930196861798F38091D201680F60931E
:10061000D20180E0089581E008951092F60181E012
:100620008093F8011092F70161E082E10E941202CA
:1006300061E083E10E941202E9EBF0E080818E7FAD
:10064000808380818D7F808388E48093B80085E4F7
:100650008093BC000895CF93DF9391E09093B10114
:100660008823B9F0C091B800D091BA008091BC0045
:100670008A7B8093BC0060E082E10E94120260E00D
:1006800083E10E9412020E940D03D093BA00C0932E
:10069000B800DF91CF9108950895E0912D028091E7
:1006A0002C02E81730F4F0E0E457FE4F808190E030
:1006B00008958FEF9FEF089590912D0280912C0265
:1006C0002FEF3FEF981748F4E92FF0E0E457FE4F83
:1006D000208130E09F5F90932D02C90108958091A1
:1006E0002C0290912D02891B990B0895CF92DF92D5
:1006F000EF92FF920F931F93CF93DF937C01CB0177
:100700008A0120918B01222389F0EB016B01C40E39
:10071000D51ECC15DD0569F06991D701ED91FC91ED
:100720000190F081E02DC7010995F3CF642F0E945D
:10073000E602C801DF91CF911F910F91FF90EF90DA
:10074000DF90CF900895CF93DF931F92CDB7DEB7A0
:10075000698320918B012223F9F020912A02203213
:1007600058F021E030E0FC013383228390E080E008
:100770000F90DF91CF91089580912B02E82FF0E048
:10078000E559FE4F998190838F5F80932B02809370
:100790002A0281E090E0ECCF61E0CE0101960E9458
:1007A000E602F7CFCF92DF92EF92FF920F931F9363
:1007B000CF93DF93FC01C48121E020938B01C09390
:1007C0006A0110922B0210922A028385682B81ED18
:1007D00092E00E94A303D0912A02D13208F092C085
:1007E0000E948F026B017C018091F601811165C02E
:1007F00082E08093F60181E08093F8018FEF80938F
:10080000F50110921A02D0931902ABE6B1E0E9EFBC
:10081000F1E080E0D81385C010921B0280911B028A
:10082000CC0FC82BC0931B028091F701813009F0D7
:100830007CC01092F7010E948F026B017C018091B5
:100840001B028093BB008091AD019091AE01A091FD
:10085000AF01B091B001892B8A2B8B2B99F00E94AC
:100860008F020091AD011091AE012091AF01309146
:10087000B0016C197D098E099F0906171707280713
:100880003907E0F18091BC0083FDD9CF85EC8093DE
:10089000BC000E948F026B017C018091F6018230C6
:1008A00009F445C08091F5018F3F61F18091F50118
:1008B000803241F18091F50125C08091AD01909188
:1008C000AE01A091AF01B091B001892B8A2B8B2B87
:1008D00009F48ACF0E948F020091AD011091AE0100
:1008E0002091AF013091B0016C197D098E099F09EB
:1008F000061717072807390708F076CF8091AC0153
:100900000E942B0310922B0210922A0210928B014C
:10091000DF91CF911F910F91FF90EF90DF90CF90DB
:1009200008959D9191938F5F75CF85EEB0CF8091A3
:10093000AD019091AE01A091AF01B091B001892BB2
:100940008A2B8B2B09F4A9CF0E948F020091AD0155
:100950001091AE012091AF013091B0016C197D0969
:100960008E099F09061717072807390708F095CF42
:10097000C5CF089590E080E00895FB01019000202C
:10098000E9F73197AF01461B570BDC01ED91FC9164
:100990000280F381E02D09948F929F92AF92BF92D3
:1009A000EF92FF920F931F93CF93DF93CDB7DEB7F4
:1009B000A1970FB6F894DEBF0FBECDBF7C01FA0140
:1009C000CB0119A2223008F42AE08E010F5D1F4FDF
:1009D000822E912CB12CA12CBF01A50194010E9463
:1009E0002D0CF901CA016A300CF5605DD8016E93D7
:1009F0008D01232B242B252B79F790E080E0109795
:100A000021F0BD01C7010E94BD04A1960FB6F89464
:100A1000DEBF0FBECDBFDF91CF911F910F91FF9031
:100A2000EF90BF90AF909F908F900895695CDECF5C
:100A30002F923F924F925F926F927F928F929F92EE
:100A4000AF92BF92CF92DF92EF92FF921F93CF931C
:100A5000DF93EC016A017B01722EAB019601CB01A1
:100A6000B6010E94950E68E371E0811126C046012F
:100A70005701E894B7F82FEF3FEF4FE75FE7C50165
:100A8000B4010E94950E81110CC02FEF3FEF4FE78C
:100A90005FE7C501B4010E94CB0C6CE371E018164E
:100AA00064F02FEF3FEF4FE75FE4C701B6010E940C
:100AB000230E1816B4F460E471E0CE01DF91CF91FB
:100AC0001F91FF90EF90DF90CF90BF90AF909F90DD
:100AD0008F907F906F905F904F903F902F900C94ED
:100AE000BD042FEF3FEF4FE75FECC701B6010E9457
:100AF000CB0C87FDE0CF20E030E0A901C701B601B3
:100B00000E94CB0C312C212C87FF0DC0E881F9818C
:100B10000190F081E02D6DE2CE0109951C01F7FAFC
:100B2000F094F7F8F09410E060E070E080E09FE36C
:100B3000711641F020E030E040E251E40E94D00C18
:100B40001F5FF6CFA70196010E945F0C2B013C01AD
:100B50000E94420D4B015C012AE0BC01A401CE01C0
:100B60000E94CC047C01E20CF31C1123E1F1C501CD
:100B7000B4010E94710D9B01AC01C301B2010E943E
:100B80005E0C4B015C01E881F9810190F081E02D60
:100B90006EE2CE010995E80EF91E115020F120E019
:100BA00030E040E251E4C501B4010E94280E2B015F
:100BB0003C010E94420D4B01B12CA12C2AE0B50151
:100BC000A401CE010E94CC04E80EF91EC501B401B7
:100BD0000E94710D9B01AC01C301B2010E945E0C29
:100BE0004B015C01DACFC701DF91CF911F91FF90DC
:100BF000EF90DF90CF90BF90AF909F908F907F90BD
:100C00006F905F904F903F902F9008950F931F9398
:100C1000CF938C01C62F0E94D2036C2F6460C80151
:100C20000E94D2036C2F6B7FC8010E94D20383EC19
:100C300090E00197F1F7CF911F910F9108950F93D5
:100C40001F93CF93DF938C01D62FC42F607F642B2B
:100C50000E94060680E1D89FB00111246C2BC801C8
:100C6000DF91CF911F910F910C940606CF93DF93E4
:100C7000CDB7DEB728970FB6F894DEBF0FBECDBF55
:100C800098E0E0E0F1E0DE01119601900D929A9576
:100C9000E1F790910A03981708F48FEF90E0880F1E
:100CA000991F21E030E02C0F3D1F820F931FFC01A4
:100CB0006081606840E082E093E028960FB6F89487
:100CC000DEBF0FBECDBFDF91CF910C941F06CF9337
:100CD000DF93823028F09091070398609093070388
:100CE00080930A0362E370E080E090E00E94B40227
:100CF00060910D0382E093E00E94D20368EE73E0FE
:100D000080E090E00E94B40260E382E093E00E9401
:100D10000606CBE4D6E4CE010197F1F760E382E06A
:100D200093E00E9406062197F1F760E382E093E0EA
:100D30000E94060683E592E00197F1F760E282E007
:100D400093E00E94060660910703606240E082E043
:100D500093E00E941F0684E08093080340E06CE06B
:100D600082E093E00E941F0640E061E082E093E0B1
:100D70000E941F06CBE3DFE1CE010197F1F782E08D
:100D80008093090340E066E082E093E00E941F0642
:100D900040E062E082E093E00E941F062197F1F7B5
:100DA000DF91CF91089541E00E941F0681E090E01D
:100DB000089585ED8093BC008091AD019091AE01C6
:100DC000A091AF01B091B0010796A11DB11D23E024
:100DD000B695A795979587952A95D1F72091BC0050
:100DE00024FD03C01092F60108954091AD01509189
:100DF000AE016091AF017091B001452B462B472B9E
:100E000069F30097A105B10541F025E32A95F1F7B3
:100E100000000197A109B109E1CF8091AC010C94C8
:100E20002B031F920F920FB60F9211242F933F9313
:100E30004F935F936F937F938F939F93AF93BF93E2
:100E4000EF93FF9384E392E00E948301FF91EF917F
:100E5000BF91AF919F918F917F916F915F914F91D2
:100E60003F912F910F900FBE0F901F9018951F92DA
:100E70000F920FB60F9211242F938F939F93EF939E
:100E8000FF93E0914402F09145028081E0914A0293
:100E9000F0914B0282FD1BC0908180914D028F5FCB
:100EA0008F7320914E02821741F0E0914D02F0E0E5
:100EB000EC5CFD4F958F80934D02FF91EF919F91D8
:100EC0008F912F910F900FBE0F901F9018958081DA
:100ED000F4CF1F920F920FB60F9211242F933F93CE
:100EE0008F939F93AF93BF9380911E0290911F02A7
:100EF000A0912002B091210230911D0223E0230F26
:100F00002D3758F50196A11DB11D20931D02809328
:100F10001E0290931F02A0932002B09321028091A1
:100F2000220290912302A0912402B0912502019601
:100F3000A11DB11D8093220290932302A09324024D
:100F4000B0932502BF91AF919F918F913F912F91C7
:100F50000F900FBE0F901F90189526E8230F029652
:100F6000A11DB11DD2CF1F920F920FB60F92112467
:100F70002F933F934F935F936F937F938F939F93A1
:100F8000AF93BF93CF93DF93EF93FF9380911C02B6
:100F9000C0910103D0E087FF24C010928500109219
:100FA000840080911C028F5F80931C0280911C0240
:100FB000082E000C990B8C179D0724F480911C02BD
:100FC0008C30C4F180918400909185000496803427
:100FD0009C4908F47AC08091840090918500049621
:100FE00076C080911C02082E000C990B8C179D076F
:100FF000C4F6E0911C028E2FEE0F990BFC01EE0F50
:10100000FF1FE80FF91FE352FD4F808186FFC9CF14
:10101000E0911C028E2FEE0F990BFC01EE0FFF1FCB
:10102000E80FF91FE352FD4F808160E08F730E944B
:101030001202B7CF2091840030918500E0911C020C
:101040008E2FEE0F990BFC01EE0FFF1FE80FF91F1B
:10105000E352FD4F81819281820F931F909389000B
:1010600080938800E0911C028E2FEE0F990BFC01FB
:10107000EE0FFF1FE80FF91FE352FD4F808186FF3F
:1010800011C0E0911C028E2FEE0F990BFC01EE0FA8
:10109000FF1FE80FF91FE352FD4F808161E08F735E
:1010A0000E941202FF91EF91DF91CF91BF91AF911A
:1010B0009F918F917F916F915F914F913F912F9170
:1010C0000F900FBE0F901F90189580E49CE99093AD
:1010D0008900809388008FEF80931C02E3CF1F92DA
:1010E0000F920FB60F9211242F933F934F935F935C
:1010F0006F937F938F939F93AF93BF93EF93FF93E0
:101100008091B900887F803609F44AC0F0F58832B2
:1011100009F4A7C018F5803109F49BC0B8F48823FE
:1011200009F4F9C0883009F494C0FF91EF91BF91A0
:10113000AF919F918F917F916F915F914F913F916F
:101140002F910F900FBE0F901F901895883109F4C2
:1011500088C0803251F78093F50114C0803409F4BF
:101160009DC040F48033B9F38833F9F68093F501DC
:1011700085ECB0C0803509F485C0883509F496C087
:10118000883499F60E94D906D0CF883909F48CC0EA
:1011900038F5883729F050F4883611F0803729F671
:1011A00083E08093F6011092F40157C0883809F467
:1011B0007BC0803919F0803809F0B7CF8091F401F5
:1011C000803208F071C0E091F40181E08E0F8093CD
:1011D000F4018091BB00F0E0EC52FE4F80833DC0F3
:1011E000803B39F0E0F4803A09F479C0883A09F09C
:1011F0009CCF84E08093F6011092D3011092D2012B
:10120000E0912802F091290209958091D201811183
:101210000FC081E08093D2011092B20109C0803CDE
:1012200009F4A6CF883C09F4A3CF883B09F07DCF11
:10123000E091D30181E08E0F8093D301F0E0EE5472
:10124000FE4F80818093BB009091D3018091D201A9
:1012500029C080911B028093BB0085EC8093BC0069
:1012600064CF90911A0280911902981758F5E09175
:101270001A0281E08E0F80931A02F0E0E750FE4FD1
:101280008081E9CFE0911A0281E08E0F80931A02EB
:101290008091BB00F0E0E750FE4F808390911A02EE
:1012A000809119029817C8F285E8D8CFE0911A0208
:1012B00081E08E0F80931A028091BB00F0E0E7502E
:1012C000FE4F80838091F80181115CCF81E0809393
:1012D000F70184EA8093BC001092F60126CF85ECDA
:1012E0008093BC001092F6018091F401803230F4BA
:1012F000E091F401F0E0EC52FE4F10826091F401B5
:1013000070E0E0912602F091270284ED91E00995CA
:101310001092F4010ACF1092F50134CF10923702E7
:101320001092360288EE93E0A0E0B0E0809338029D
:1013300090933902A0933A02B0933B022CE031E043
:10134000309335022093340225EC30E03093410293
:101350002093400224EC30E0309343022093420279
:1013600020EC30E0309345022093440221EC30E041
:10137000309347022093460222EC30E0309349023A
:101380002093480226EC30E030934B0220934A022F
:1013900010924D0210924E0210924F021092500283
:1013A0001092D4021092D3028093D5029093D60269
:1013B000A093D702B093D8028EE191E09093D2022D
:1013C0008093D102809101038C3040F591E0980F19
:1013D0009093010380930E0390E0FC01EE0FFF1F3A
:1013E000E80FF91FE352FD4F88EB9BE09283818366
:1013F000109205031092040380E391E0909303039D
:101400008093020387E28093060380E180930B03BD
:1014100082E080930C0310920D0308958FEF809368
:101420000E03E6CF789484B5826084BD84B5816074
:1014300084BD85B5826085BD85B5816085BD80919F
:101440006E00816080936E00109281008091810017
:10145000826080938100809181008160809381000F
:10146000809180008160809380008091B1008460D1
:101470008093B1008091B00081608093B000809132
:101480007A00846080937A0080917A0082608093F1
:101490007A0080917A00816080937A0080917A004E
:1014A000806880937A001092C100E0914402F0912C
:1014B000450282E08083E0914002F0914102108277
:1014C000E0914202F09143028FEC808310924C0233
:1014D000E0914802F091490286E08083E091460263
:1014E000F0914702808180618083E0914602F09113
:1014F0004702808188608083E0914602F091470234
:10150000808180688083E0914602F091470280816B
:101510008F7D808310922D0210922C0210922B024C
:1015200010922A020E940D0383E091E09093290219
:101530008093280284E091E0909327028093260212
:1015400082E00E94670610922B0210922A020E94EB
:101550000D031092070380910C030E94670688E038
:1015600080930D0360E082E093E00E94D2038091BB
:101570000E038C3008F051C061E089E00E945E02E9
:1015800080910E03282F30E0F901EE0FFF1FE20FCC
:10159000F31FE352FD4F9081907C996090831092ED
:1015A0000F03109210032CE0622F0E949A0E829F6C
:1015B000B001112430E020E0AB01420F531FFA01CB
:1015C000EE0FFF1FE40FF51FE352FD4F908196FDD4
:1015D00016C02F5F3F4F2C30310571F781110FC0BE
:1015E0001092800082E0809381001092850010921A
:1015F0008400B19A80916F00826080936F00E091C7
:101600000E038E2F90E0FC01EE0FFF1FE80FF91F75
:10161000E352FD4F80818064808360E08EE00E9411
:101620005E0261E082E00E945E0280E00E94360677
:1016300064E471E082E093E00E94BD0481E00E94D6
:10164000360660E571E082E093E00E94BD0460ED43
:1016500077E080E090E00E94B40240E061E082E048
:1016600093E00E941F068BE39FE10197F1F780E46E
:10167000D82E00E010E09CE3E92EF12CD0927C0003
:1016800080917A00806480937A0080917A0086FD50
:10169000FCCF8091780060917900762F682F072E1B
:1016A000000C880B990B0E94730D25EB37E348EF74
:1016B0005EE30E94280E60933002709331028093A3
:1016C00032029093330280E00E9436066BE571E0AF
:1016D00082E093E00E94BD044091300250913102BB
:1016E000609132027091330222E082E093E00E9426
:1016F000180562E671E082E093E00E94BD046BE5AC
:1017000071E084E392E00E94BD0440913002509168
:101710003102609132027091330222E084E392E060
:101720000E94180565E671E084E392E00E94BD0422
:101730008090300290903102A0903202B09033023B
:1017400020E030E040EF51E4C501B4010E94230ED7
:1017500087FD1EC061E082E00E94120210922F02FB
:1017600010922E02C0912E02D0912F02CD33D105BE
:10177000B4F5CE010E94870061E070E080E090E067
:101780000E94B4022196D0932F02C0932E02EACF7A
:1017900020E030E040EF51E4C501B4010E94CB0CE1
:1017A00087FF1DC060E082E00E941202F0922F02CB
:1017B000E0922E02C0912E02D0912F02D7FD0FC0D1
:1017C000CE010E94870061E070E080E090E00E941E
:1017D000B4022197D0932F02C0932E02EBCF0115B4
:1017E000110509F44BCF0E946F01882309F446CFFD
:1017F0000E94000043CF052E97FB1EF400940E9428
:10180000120C57FD07D00E942D0C07FC03D04EF49C
:101810000C94120C50954095309521953F4F4F4FA9
:101820005F4F089590958095709561957F4F8F4F8C
:101830009F4F08950E944F0CA59F900DB49F900D4F
:10184000A49F800D911D11240895B7FF0C941A0CCC
:101850000E941A0C821B930B0895A1E21A2EAA1B58
:10186000BB1BFD010DC0AA1FBB1FEE1FFF1FA21750
:10187000B307E407F50720F0A21BB30BE40BF50B4D
:10188000661F771F881F991F1A9469F760957095D6
:10189000809590959B01AC01BD01CF010895A29F59
:1018A000B001B39FC001A39F700D811D1124911D34
:1018B000B29F700D811D1124911D08955058BB27B2
:1018C000AA270E94760C0C94E90D0E94DB0D38F0DB
:1018D0000E94E20D20F039F49F3F19F426F40C9495
:1018E000D80D0EF4E095E7FB0C94D20DE92F0E9481
:1018F000FA0D58F3BA17620773078407950720F0AB
:1019000079F4A6F50C941C0E0EF4E0950B2EBA2F6C
:10191000A02D0B01B90190010C01CA01A0011124F5
:10192000FF27591B99F0593F50F4503E68F11A16A1
:10193000F040A22F232F342F4427585FF3CF469532
:1019400037952795A795F0405395C9F77EF41F1654
:10195000BA0B620B730B840BBAF09150A1F0FF0F1E
:10196000BB1F661F771F881FC2F70EC0BA0F621F0A
:10197000731F841F48F4879577956795B795F795FA
:101980009E3F08F0B0CF9395880F08F09927EE0F8F
:101990009795879508950E94AE0D08F481E008950B
:1019A0000E94E40C0C94E90D0E94E20D58F00E9494
:1019B000DB0D40F029F45F3F29F00C94D20D51115A
:1019C0000C941D0E0C94D80D0E94FA0D68F3992307
:1019D000B1F3552391F3951B550BBB27AA2762172B
:1019E0007307840738F09F5F5F4F220F331F441F38
:1019F000AA1FA9F335D00E2E3AF0E0E832D091506C
:101A00005040E695001CCAF72BD0FE2F29D0660F58
:101A1000771F881FBB1F261737074807AB07B0E89B
:101A200009F0BB0B802DBF01FF2793585F4F3AF0A1
:101A30009E3F510578F00C94D20D0C941D0E5F3F23
:101A4000E4F3983ED4F3869577956795B795F79527
:101A50009F5FC9F7880F911D9695879597F908950F
:101A6000E1E0660F771F881FBB1F621773078407AB
:101A7000BA0720F0621B730B840BBA0BEE1F88F7BA
:101A8000E09508950E94020E88F09F5798F0B92FB4
:101A90009927B751B0F0E1F0660F771F881F991FA3
:101AA0001AF0BA95C9F714C0B13091F00E941C0E1B
:101AB000B1E008950C941C0E672F782F8827B85F2B
:101AC00039F0B93FCCF3869577956795B395D9F7FB
:101AD0003EF490958095709561957F4F8F4F9F4F05
:101AE0000895E89409C097FB3EF490958095709511
:101AF00061957F4F8F4F9F4F9923A9F0F92F96E95A
:101B0000BB279395F695879577956795B795F111CE
:101B1000F8CFFAF4BB0F11F460FF1BC06F5F7F4F6B
:101B20008F4F9F4F16C0882311F096E911C077237D
:101B300021F09EE8872F762F05C0662371F096E886
:101B4000862F70E060E02AF09A95660F771F881F55
:101B5000DAF7880F9695879597F90895990F0008F9
:101B6000550FAA0BE0E8FEEF16161706E807F9076F
:101B7000C0F012161306E407F50798F0621B730B0A
:101B8000840B950B39F40A2661F0232B242B252B8B
:101B900021F408950A2609F4A140A6958FEF811D2E
:101BA000811D089597F99F6780E870E060E00895CF
:101BB0009FEF80EC089500240A9416161706180665
:101BC0000906089500240A94121613061406050641
:101BD0000895092E0394000C11F4882352F0BB0FD2
:101BE00040F4BF2B11F460FF04C06F5F7F4F8F4F35
:101BF0009F4F089557FD9058440F551F59F05F3F70
:101C000071F04795880F97FB991F61F09F3F79F01E
:101C100087950895121613061406551FF2CF4695A0
:101C2000F1DF08C0161617061806991FF1CF869522
:101C30007105610508940895E894BB276627772706
:101C4000CB0197F908950E94AE0D08F48FEF089527
:101C50000E943B0E0C94E90D0E94DB0D38F00E94AF
:101C6000E20D20F0952311F00C94D20D0C94D80DB8
:101C700011240C941D0E0E94FA0D70F3959FC1F370
:101C8000950F50E0551F629FF001729FBB27F00D2A
:101C9000B11D639FAA27F00DB11DAA1F649F66277F
:101CA000B00DA11D661F829F2227B00DA11D621FCE
:101CB000739FB00DA11D621F839FA00D611D221F88
:101CC000749F3327A00D611D231F849F600D211D6C
:101CD000822F762F6A2F11249F5750409AF0F1F0EF
:101CE00088234AF0EE0FFF1FBB1F661F771F881F58
:101CF00091505040A9F79E3F510580F00C94D20DB1
:101D00000C941D0E5F3FE4F3983ED4F386957795CF
:101D10006795B795F795E7959F5FC1F7FE2B880FFD
:101D2000911D9695879597F908950E94AE0D880BA1
:101D3000990B0895991B79E004C0991F961708F034
:101D4000961B881F7A95C9F780950895EE0FFF1F9F
:0C1D50000590F491E02D0994F894FFCF69
:101D5C00000040001400540000000000A501050123
:101D6C003201F20163014101550100000000A3039F
:101D7C007603BA044C036F035C034D0300000000B0
:101D8C00D3060501BA04B9046E616E00696E660073
:101D9C006F76660054656D7065726174757265005E
:101DAC00436F6E74726F6C6C65720054656D703A33
:0A1DBC00200020430020430D00002A
:00000001FF
